:100000000C9434000C9451000C9451000C94510049
:100010000C9451000C9451000C9451000C9451001C
:100020000C9451000C9451000C9451000C9451000C
:100030000C9451000C9451000C9451000C945100FC
:100040000C9451000C9451000C9451000C945100EC
:100050000C9451000C9451000C9451000C945100DC
:100060000C94F7000C94510011241FBECFEFD8E080
:10007000DEBFCDBF11E0A0E0B1E0EEE2F3E002C0F0
:1000800005900D92A232B107D9F721E0A2E2B1E0CA
:1000900001C01D92A033B207E1F70E94A7000C94A3
:1000A00095010C94000097B19F7C97B9880F8093BD
:1000B000BA0085E48093BC000895EF92FF921F93ED
:1000C000CF93DF93CDB7DEB727970FB6F894DEBF97
:1000D0000FBECDBF7C01009721F480E30E94530145
:1000E0002AC0992334F48DE20E945301F194E194E3
:1000F000F10810E010C0C7016AE070E00E946D01D5
:10010000E1E0F0E0EC0FFD1FE10FF11D805D808369
:10011000E62EF72E1F5F1E141F046CF30AC0115049
:10012000E1E0F0E0EC0FFD1FE10FF11D80810E9486
:1001300053011111F4CF27960FB6F894DEBF0FBE0E
:10014000CDBFDF91CF911F91FF90EF9008958AB1BD
:100150008C638AB98BB1837C8BB984B1806284B99A
:1001600085B18F7D85B980E30E9453000E943A01DA
:1001700080E091E00E945A017894809126018823C2
:10018000E1F383B1806283B910922601E8E2F1E0E5
:100190008081D82F80E0C82F828193818C2B9D2B6A
:1001A0009093250180932401148100E0868197813A
:1001B000802B912B909323018093220186E191E083
:1001C0000E945A0180912401909125010E945D00B6
:1001D0008AE191E00E945A018091220190912301CD
:1001E0000E945D0083E191E00E945A01C6CF1F92F8
:1001F0000F920FB60F9211242F933F938F93EF938B
:10020000FF938091B900887F803851F0803AF1F0F7
:10021000803619F51092270185EC8093BC0020C030
:1002200080912701843070F4E82FF0E02091BB002A
:10023000EE0FFF1FE85DFE4F30E0318320838F5FBC
:100240008093270185EC8093BC000AC081E08093F5
:10025000260185EC8093BC0003C085EC8093BC0034
:10026000FF91EF918F913F912F910F900FBE0F90C3
:100270001F9018958AB182608AB98AB18E7F8AB937
:100280001092C000E1ECF0E0808188698083E2ECAC
:10029000F0E080818660808387E690E09093C500DF
:1002A0008093C40008959091C00095FFFCCF809387
:1002B000C60008950F931F93CF938C01C0E003C035
:1002C0000E945301CF5FF801EC0FF11D8081811175
:1002D000F7CFCF911F910F91089597FB072E16F43A
:1002E000009407D077FD09D00E94810107FC05D05A
:1002F0003EF4909581959F4F0895709561957F4F3D
:100300000895AA1BBB1B51E107C0AA1FBB1FA6175C
:10031000B70710F0A61BB70B881F991F5A95A9F7AE
:0E03200080959095BC01CD010895F894FFCF13
:10032E004573636C61766F20496E69636961646FB2
:10033E002E2E2E0D0A00583A2000207C20593A20ED
:02034E000000AD
:00000001FF
