:100000000C9434000C9446000C9446000C9446006A
:100010000C9446000C9446000C9446000C94460048
:100020000C9446000C9446000C9446000C94460038
:100030000C9446000C9446000C9446000C94460028
:100040000C9446000C9446000C9446000C94460018
:100050000C9446000C9446000C9446000C94460008
:100060000C94CC000C94460011241FBECFEFD8E0B6
:10007000DEBFCDBF21E0A0E0B1E001C01D92AA30FB
:10008000B207E1F70E948E000C9490010C940000DE
:10009000ECE7F0E010828081806280838081876459
:1000A0008083EAE7F0E0108280818F68808380811E
:1000B00080648083089597B19F7C97B9880F80935F
:1000C000BA0085E48093BC0008959C01225F3F4FF5
:1000D0002D31310510F480E090E0863A2FEF920741
:1000E00014F486EA9FEF8B35910514F08AE590E0D1
:1000F0009C01265A3F4F40ED57E0249FC001259FA9
:10010000900D349F900D112464EB70E00E94680103
:10011000CB018053984F0E94630108958AB18C638C
:100120008AB98BB1837C8BB984B1806284B985B183
:100130008F7D85B968E070E080E090E00E94090161
:100140000E94480080E30E945B0078948091040143
:100150008823D9F083B1806283B910920401E6E06C
:10016000F1E0808190E0982F88272181822B909365
:10017000030180930201828190E0982F88272381D8
:10018000822B909301018093000180910201909154
:1001900003010E946500DACF1F920F920FB60F92F3
:1001A00011248F939F93EF93FF938091B900887FE1
:1001B000803851F0803AD1F08036F9F41092050180
:1001C00085EC8093BC001CC080910501843050F404
:1001D000E82FF0E09091BB00EA5FFE4F90838F5FC5
:1001E0008093050185EC8093BC000AC081E0809378
:1001F000040185EC8093BC0003C085EC8093BC00B7
:10020000FF91EF919F918F910F900FBE0F901F90D4
:10021000189594B1926094B9E0E8F0E090819F73F2
:100220009083813021F48081806C808305C0E0E878
:10023000F0E0808180688083E0E8F0E08081826087
:100240008083E1E8F0E080818861808388EE9DEF23
:10025000909387008093860060347105E1F038F454
:100260006130710561F06830710579F026C0611563
:1002700081E07807B1F061157440C9F01EC0E1E873
:10028000F0E08081816080830895E1E8F0E0808182
:10029000826080830895E1E8F0E08081836080835C
:1002A0000895E1E8F0E08081846080830895E1E8CA
:1002B000F0E08081856080830895E1E8F0E080814E
:1002C00082608083089590938900809388000895C8
:1002D00097FB072E16F4009407D077FD09D00E94F3
:1002E0007C0107FC05D03EF4909581959F4F0895C1
:1002F000709561957F4F0895AA1BBB1B51E107C004
:10030000AA1FBB1FA617B70710F0A61BB70B881FA5
:10031000991F5A95A9F780959095BC01CD01089534
:04032000F894FFCF7F
:00000001FF
