S00E0000536C617665322E73726563E9
S11300000C9434000C9451000C9451000C94510045
S11300100C9451000C9451000C9451000C94510018
S11300200C9451000C9451000C9451000C94510008
S11300300C9451000C9451000C9451000C945100F8
S11300400C9451000C9451000C9451000C945100E8
S11300500C9451000C9451000C9451000C945100D8
S11300600C94F2000C94510011241FBECFEFD8E081
S1130070DEBFCDBF11E0A0E0B1E0E2EFF2E002C0EC
S113008005900D92AE33B107D9F721E0AEE3B1E0AC
S113009001C01D92A134B207E1F70E94B0000C9494
S11300A077010C94000097B19F7C97B9880F8093D7
S11300B0BA0085E48093BC0008958BB18F7E8BB920
S11300C08BB18F7B8BB9E4E8F0E01182108287EA70
S11300D091E60197F1F700C00000208131818BB1D6
S11300E080618BB98BB180648BB91182108287EAED
S11300F091E60197F1F700C00000408151818BB176
S11301008F7E8BB98BB180648BB91182108287EAA0
S113011091E60197F1F700C00000808191814217B8
S1130120530738F48217930720F481E080933E014B
S113013008952417350738F48417950720F482E0CE
S113014080933E0108952817390738F44817590752
S113015020F483E080933E01089510923E010895B7
S113016080E40E9453000E94440180E091E00E94D8
S113017064018AB18C658AB98AB18F7D8AB98BB1E1
S113018084608BB98BB1877F8BB91092800087E034
S11301908093810078940E945D0080913E018130BB
S11301A029F48BE191E00E94640112C0823029F4A9
S11301B082E291E00E9464010BC0833029F48AE258
S11301C091E00E94640104C081E391E00E94640113
S11301D02FE986E891E0215080409040E1F700C08B
S11301E00000D9CF1F920F920FB60F9211248F9354
S11301F09F93EF93FF938091B9008C7F803AA1F194
S113020058F48037A1F018F4803689F031C0803872
S113021091F0803981F02CC0883BC1F018F4883A01
S1130220A9F026C0803CD1F0883CC1F021C085EC07
S11302308093BC0020C08091BB0090E0909340016B
S113024080933F0185EC8093BC0015C080913F01F1
S11302508093BB0085EC8093BC000DC0ECEBF0E018
S1130260108284EC808307C085EC8093BC0003C0BB
S113027085EC8093BC00FF91EF919F918F910F903B
S11302800FBE0F901F9018958AB182608AB98AB107
S11302908E7F8AB91092C000E1ECF0E08081886919
S11302A08083E2ECF0E080818660808387E690E0E2
S11302B09093C5008093C40008959091C00095FF69
S11302C0FCCF8093C60008950F931F93CF938C01A6
S11302D0C0E003C00E945D01CF5FF801EC0FF11D87
S11302E080818111F7CFCF911F910F910895F894D8
S10502F0FFCF3A
S11302F25072756562612070617261206465746513
S11303026374617220636F6C6F7200524F4A4F0DB7
S11303120A0056455244450D0A00415A554C0D0AED
S11103220053494E20434F4C4F520D0A000029
S9030000FC
