S018000050726F796563746F315F4D61737465722E73726563BB
S11300000C944B000C9468000C9468000C946800E9
S11300100C9468000C9468000C9468000C946800BC
S11300200C9468000C9468000C9468000C946800AC
S11300300C9468000C9468000C9468000C9468009C
S11300400C9468000C9468000C947F020C94680073
S11300500C9468000C9468000C9468000C9468007C
S11300600C9468000C946800084AD73B3BCE016EA0
S113007084BCBFFDC12F3D6C74319ABD56833DDAFB
S11300803D00C77F11BED9E4BB4C3E916BAAAABE0A
S1130090000000803F0011241FBECFEFD8E0DEBF78
S11300A0CDBF11E0A0E0B1E0EAE7FBE002C00590BB
S11300B00D92AC36B107D9F721E0ACE6B1E001C04E
S11300C01D92AC36B207E1F70E9459020C94BB05AD
S11300D00C9400000F931F93CF938B019C01C42FAA
S11300E087B18F7C87B9443079F018F4413031F00E
S11300F023C0403191F04034C9F01EC0E9EBF0E078
S113010080818C7F80831EC0E9EBF0E080818D7F4D
S1130110808380818160808315C0E9EBF0E0808179
S11301208E7F80838081826080830CC0E9EBF0E065
S113013080818360808306C0E9EBF0E080818C7F5E
S11301408083C1E060E074E284EF90E0A90198014B
S11301500E948505CA01B90160517109810991099B
S11301604C2F50E09A01220F331F032E000C440B36
S1130170550B0E9485052093B800ECEBF0E08081DC
S113018084608083CF911F910F91089584EA8093B6
S1130190BC008091BC008823E4F79091B900987F5B
S11301A081E0983009F080E0089584EA8093BC00EF
S11301B08091BC008823E4F79091B900987F81E096
S11301C0903109F080E0089584E98093BC00809127
S11301D0BC0084FDFCCF08958093BB0084E8809329
S11301E0BC008091BC008823E4F78091B900887F2B
S11301F0883121F0883219F481E0089581E008956E
S1130200FC01662321F084EC8093BC0003C084E8E5
S11302108093BC009091BC009923E4F79091B900BD
S1130220987F662311F0903549F4611102C0983526
S113023039F48091BB00808381E0089580E00895C3
S113024080E008950F931F93CF93DF93182F092F06
S1130250C62FD72F0E94C60080E60E94EC00882398
S113026079F0802F0E94EC00812F0E94EC008D2FEA
S11302700E94EC008C2F0E94EC000E94E40006C057
S11302800E94E40080E091E00E94A902DF91CF91F6
S11302901F910F9108950E94C60080ED0E94EC000A
S11302A08BE60E94EC0080E00E94EC000E94E400D7
S11302B083EC99E00197F1F700C000000895EF92F4
S11302C0FF921F93CF93DF93CDB7DEB727970FB677
S11302D0F894DEBF0FBECDBF7C01009721F480E30C
S11302E00E94A2022AC0992334F48DE20E94A20241
S11302F0F194E194F10810E010C0C7016AE070E0E5
S11303000E947105E1E0F0E0EC0FFD1FE10FF11D2B
S1130310805D8083E62EF72E1F5F1E141F046CF38E
S11303200AC01150E1E0F0E0EC0FFD1FE10FF11DF8
S113033080810E94A2021111F4CF27960FB6F8947F
S1130340DEBF0FBECDBFDF91CF911F91FF90EF9025
S113035008958F929F92AF92BF92CF92DF92EF92C5
S1130360FF920F931F93CF93DF9300D0CDB7DEB7E7
S11303700E94C60080ED0E94EC008BE30E94EC001A
S11303800E94D50081ED0E94EC0061E0CE0101964F
S11303900E94000161E0CE0102960E9400010981E1
S11303A010E0102F00278A81082B61E0CE0101960E
S11303B00E94000161E0CE0102960E940001E980E2
S11303C0F12CFE2CEE248A81E82A61E0CE0101960C
S11303D00E94000160E0CE0102960E940001698142
S11303E070E0762F66278A816B01C82A0E94E40098
S11303F0B601DD0C880B990B0E94D4034B015C0100
S1130400B701FF0C880B990B0E94D403A50194013A
S11304100E94CF022BE13FE245E652E40E948F04A2
S11304206B017C0166277727601B710B072E000C7C
S1130430880B990B0E94D403A50194010E94CF025A
S11304402BE13FE245E652E40E948F044B015C013C
S11304508DE191E00E94A902C701B6010E949C03AC
S11304606B017C01CB010E945F018BE291E00E9451
S1130470A902C501B4010E949C034B015C01CB019C
S11304800E945F0186E391E00E94A902B401C601C3
S11304900E9422010F900F90DF91CF911F910F9135
S11304A0FF90EF90DF90CF90BF90AF909F908F9090
S11304B008950E94890241E060EA76E881E090E0D4
S11304C00E946A0087EA91E60197F1F700C00000F4
S11304D08DE391E00E94A9020E944B010E94A901B0
S11304E084E591E00E94A90295B180E2892785B94B
S11304F087EA91E60197F1F700C00000EFCF1F9261
S11305000F920FB60F9211240F900FBE0F901F90F1
S113051018958AB182608AB98AB18E7F8AB910929D
S1130520C000E1ECF0E0808188698083E2ECF0E0D7
S113053080818660808387E690E09093C5008093F5
S1130540C40008959091C00095FFFCCF8093C6002D
S113055008950F931F93CF938C01C0E003C00E94B2
S1130560A202CF5FF801EC0FF11D80818111F7CF5A
S1130570CF911F910F9108950E943F0460F080E88D
S113058091E009F49EEF0E94460428F040E851E00F
S113059071F45EEF0CC00C9415040C948004E92FE4
S11305A0E0780E945E0440F3092E052AB1F3261771
S11305B037074807590738F00E2E07F8E02569F089
S11305C0E025E0640AC0EF6307F8009407FADB0152
S11305D0B9019D01DC01CA01AD01EF930E94410301
S11305E00E944D040E94FF025F91552339F02BEDC8
S11305F03FE049E450FD49EC0C9401050895DF9374
S1130600DD27B92FBF7740E85FE3161617064807C2
S11306105B0718F4D92F0E9487049F938F937F93CD
S11306206F930E94FC04E8E6F0E00E9418040E9424
S11306304D042F913F914F915F910E94A204DD23BD
S113064051F09058A2EA2AED3FE049EC5FE3D078FC
S11306505D270E941805DF910C944D040E94460406
S113066058F00E943F0440F029F45F3F29F00C94B5
S11306700F0451110C9481040C9415040E945E041F
S113068068F39923B1F3552391F3951B550BBB27BD
S1130690AA2762177307840738F09F5F5F4F220F02
S11306A0331F441FAA1FA9F335D00E2E3AF0E0E8F9
S11306B032D091505040E695001CCAF72BD0FE2F43
S11306C029D0660F771F881FBB1F261737074807D7
S11306D0AB07B0E809F0BB0B802DBF01FF2793588F
S11306E05F4F3AF09E3F510578F00C940F040C9440
S11306F081045F3FE4F3983ED4F38695779567953C
S1130700B795F7959F5FC9F7880F911D96958795C3
S113071097F90895E1E0660F771F881FBB1F6217E2
S113072073078407BA0720F0621B730B840BBA0BA0
S1130730EE1F88F7E09508950E94A3036894B11111
S11307400C94810408950E94660488F09F5798F0E1
S1130750B92F9927B751B0F0E1F0660F771F881FC2
S1130760991F1AF0BA95C9F714C0B13091F00E94DC
S11307708004B1E008950C948004672F782F8827B3
S1130780B85F39F0B93FCCF3869577956795B39503
S1130790D9F73EF490958095709561957F4F8F4F72
S11307A09F4F0895E89409C097FB3EF49095809577
S11307B0709561957F4F8F4F9F4F9923A9F0F92F23
S11307C096E9BB279395F695879577956795B795A1
S11307D0F111F8CFFAF4BB0F11F460FF1BC06F5F87
S11307E07F4F8F4F9F4F16C0882311F096E911C099
S11307F0772321F09EE8872F762F05C0662371F0BA
S113080096E8862F70E060E02AF09A95660F771FCD
S1130810881FDAF7880F9695879597F9089597F9C1
S11308209F6780E870E060E008959FEF80EC089592
S1130830DF93CF931F930F93FF92EF92DF927B018D
S11308408C01689406C0DA2EEF010E94A204FE0116
S1130850E894A5912591359145915591A6F3EF0121
S11308600E941805FE019701A801DA9469F7DF9048
S1130870EF90FF900F911F91CF91DF910895002485
S11308800A941616170618060906089500240A94F1
S113089012161306140605060895092E0394000C77
S11308A011F4882352F0BB0F40F4BF2B11F460FF06
S11308B004C06F5F7F4F8F4F9F4F089557FD90582F
S11308C0440F551F59F05F3F71F04795880F97FB10
S11308D0991F61F09F3F79F08795089512161306CA
S11308E01406551FF2CF4695F1DF08C016161706F9
S11308F01806991FF1CF869571056105089408952E
S1130900E894BB2766277727CB0197F908959B01C5
S1130910AC0160E070E080E89FE30C946D050E94F8
S1130920A2040C944D040E943F0438F00E94460433
S113093020F0952311F00C940F040C941504112449
S11309400C9481040E945E0470F3959FC1F3950F8B
S113095050E0551F629FF001729FBB27F00DB11D3F
S1130960639FAA27F00DB11DAA1F649F6627B00DCF
S1130970A11D661F829F2227B00DA11D621F739FB8
S1130980B00DA11D621F839FA00D611D221F749FC6
S11309903327A00D611D231F849F600D211D822F0D
S11309A0762F6A2F11249F5750409AF0F1F0882334
S11309B04AF0EE0FFF1FBB1F661F771F881F915061
S11309C05040A9F79E3F510580F00C940F040C94FD
S11309D081045F3FE4F3983ED4F386957795679559
S11309E0B795F795E7959F5FC1F7FE2B880F911D8B
S11309F09695879597F908959B01AC010C948F0403
S1130A005058BB27AA270E9418050C944D040E9435
S1130A103F0438F00E94460420F039F49F3F19F453
S1130A2026F40C9415040EF4E095E7FB0C940F04E3
S1130A30E92F0E945E0458F3BA176207730784070C
S1130A40950720F079F4A6F50C9480040EF4E09553
S1130A500B2EBA2FA02D0B01B90190010C01CA0174
S1130A60A0011124FF27591B99F0593F50F4503E1F
S1130A7068F11A16F040A22F232F342F4427585F11
S1130A80F3CF469537952795A795F0405395C9F729
S1130A907EF41F16BA0B620B730B840BBAF09150E1
S1130AA0A1F0FF0FBB1F661F771F881FC2F70EC080
S1130AB0BA0F621F731F841F48F487957795679553
S1130AC0B795F7959E3F08F0B0CF9395880F08F03F
S1130AD09927EE0F9795879508950E943E030C94ED
S1130AE04D0497FB072E16F4009407D077FD09D028
S1130AF00E94A70507FC05D03EF4909581959F4F71
S1130B000895709561957F4F0895A1E21A2EAA1B4E
S1130B10BB1BFD010DC0AA1FBB1FEE1FFF1FA217A9
S1130B20B307E407F50720F0A21BB30BE40BF50BA6
S1130B30661F771F881F991F1A9469F7609570952F
S1130B40809590959B01AC01BD01CF010895AA1B2E
S1130B50BB1B51E107C0AA1FBB1FA617B70710F0A4
S1130B60A61BB70B881F991F5A95A9F780959095D6
S10D0B70BC01CD010895F894FFCFF5
S1130B7A4572726F723A204573636C61766F206EA8
S1130B8A6F20726573706F6E64650D0A00414E477B
S1130B9A554C4F202D3E20583A200020646567208A
S1130BAA7C20593A2000206465670D0A00496E6961
S1130BBA6369616E646F204D5055363035302E2E80
S1130BCA2E0D0A002D2D2D2D2D2D2D2D2D2D2D2DB6
S10F0BDA2D2D2D2D2D2D2D2D0D0A00008C
S9030000FC
