S00F0000536C6176655F312E737265638A
S11300000C9434000C9451000C9451000C94510045
S11300100C9451000C9474010C9451000C945100F4
S11300200C9451000C9451000C9451000C94510008
S11300300C9451000C9451000C94A9010C9451009F
S11300400C9451000C9451000C9451000C945100E8
S11300500C9451000C9451000C9451000C945100D8
S11300600C944C020C94510011241FBECFEFD8E025
S1130070DEBFCDBF11E0A0E0B1E0E6EBF6E002C0E8
S113008005900D92A032B107D9F721E0A0E2B1E0CA
S113009001C01D92AE33B207E1F70E9404010C9433
S11300A059030C94000097B19F7C97B9880F8093F3
S11300B0BA0085E48093BC0008959C01245D3F4F01
S11300C02935310510F480E090E0863A2FEF92074D
S11300D014F486EA9FEF8B35910514F08AE590E0DD
S11300E0DC01A65ABF4F20EA3FE00E94430324EB01
S11300F030E040E050E00E942103DA01C901885158
S11301009C4FAF4FBF4F0E94E902089582E084BD27
S113011085E085BD8CE987BDEEE6F0E080818260F4
S113012080830895E8E6F0E0808184608083EDE6D2
S1130130F0E0808180628083089520913C013091B9
S11301403D0180913A0190913B018217930778F425
S113015020913C0130913D01809130019091310119
S11301608217930720F481E080932D0136C02091FB
S11301703A0130913B0180913C0190913D018217FD
S1130180930778F420913A0130913B01809130013A
S1130190909131018217930720F482E080932D011E
S11301A01CC0209130013091310180913C0190912B
S11301B03D018217930778F4209130013091310189
S11301C080913A0190913B018217930720F483E0D8
S11301D080932D0102C010922D0180912D01813058
S11301E029F480E091E00E940E030895823029F4FE
S11301F083E091E00E940E030895833021F486E0A9
S113020091E00E940E0308958AB18C658AB98AB17F
S11302108F7D8AB98BB184608BB98BB1877F8BB9A1
S113022087B18F6087B984B1806284B968E070E077
S113023080E090E00E948F020E9486000E9492005B
S113024080E30E9453000E94EE0289E091E00E9444
S11302500E03789480912E018823E1F183B18062AA
S113026083B910922E01E2E3F1E080819181982F0D
S1130270882722813381822B932B90932C018093A6
S11302802B0184819581982F882726813781822BA1
S1130290932B90932A018093290180912B019091B3
S11302A02C010E945D008091290190912A014F97B1
S11302B024F081E0809328010DC080912901909160
S11302C02A01823E9F4F24F482E08093280102C0D9
S11302D01092280180912201833009F0BBCF0E9443
S11302E09D0010922201B6CF1F920F920FB60F926B
S11302F011244F935F936F937F938F939F9389B14F
S1130300982F907285FF18C080912001811114C02C
S1130310409123015091240160912501709126019F
S11303204F5F5F4F6F4F7F4F4093230150932401E2
S11303306093250170932601909320019F918F91E2
S11303407F916F915F914F910F900FBE0F901F900F
S113035018951F920F920FB60F9211242F938F931B
S11303609F93AF93BF9380912801882371F180916B
S11303702801813079F48091270190E001968370FF
S11303809078992324F401978C6F9F6F0196809342
S113039027010BC080912701882321F08091270138
S11303A0815001C083E08093270188B1807F88B9A0
S11303B02091270181E090E002C0880F991F2A95BF
S11303C0E2F798B1892B88B903C088B1807F88B9D6
S11303D0809121018F5F80932101809121018A30D6
S11303E008F450C010922101809122018130B9F0AB
S11303F018F0823051F13EC0809123019091240184
S1130400A0912501B091260190933D0180933C0178
S11304108BB180658BB981E0809322012BC08091E0
S1130420230190912401A0912501B091260190937C
S11304303B0180933A018BB18F7E8BB98BB1806481
S11304408BB982E08093220115C0809123019091A1
S11304502401A0912501B09126019093310180934C
S113046030018BB18F7E8BB98BB18F7B8BB983E0DD
S113047080932201109223011092240110922501ED
S113048010922601BF91AF919F918F912F910F9060
S11304900FBE0F901F9018951F920F920FB60F92D8
S11304A011242F933F938F93EF93FF938091B9007F
S11304B0887F803851F0803AF1F0803619F5109237
S11304C02F0185EC8093BC0020C080912F018430E3
S11304D070F4E82FF0E02091BB0030E0EE0FFF1F36
S11304E0EE5CFE4F318320838F5F80932F0185EC78
S11304F08093BC000AC081E080932E0185EC809338
S1130500BC0003C085EC8093BC00FF91EF918F91F8
S11305103F912F910F900FBE0F901F90189594B19B
S1130520926094B9E0E8F0E090819F739083813009
S113053021F48081806C808305C0E0E8F0E0808154
S113054080688083E0E8F0E0808182608083E1E875
S1130550F0E08081886180838FE39CE99093870039
S11305608093860060347105E1F038F461307105E0
S113057061F06830710579F026C0611581E0780773
S1130580B1F061157440C9F01EC0E1E8F0E080816B
S1130590816080830895E1E8F0E080818260808357
S11305A00895E1E8F0E08081836080830895E1E8C4
S11305B0F0E08081846080830895E1E8F0E0808148
S11305C0856080830895E1E8F0E080818260808323
S11305D00895909389008093880008958AB1826079
S11305E08AB98AB18E7F8AB91092C000E1ECF0E03A
S11305F0808188698083E2ECF0E08081866080837A
S113060087E690E09093C5008093C400089590918C
S1130610C00095FFFCCF8093C60008950F931F93ED
S1130620CF938C01C0E003C00E940703CF5FF801A1
S1130630EC0FF11D80818111F7CFCF911F910F91A4
S11306400895A1E21A2EAA1BBB1BFD010DC0AA1F0F
S1130650BB1FEE1FFF1FA217B307E407F50720F027
S1130660A21BB30BE40BF50B661F771F881F991FA2
S11306701A9469F760957095809590959B01AC01EB
S1130680BD01CF0108950E944A03B7FF0895821B5C
S1130690930B0895A29FB001B39FC001A39F700D57
S11306A0811D1124911DB29F700D811D1124911D76
S10906B00895F894FFCF49
S11306B65220005620004120004573636C61766F1A
S11306C620496E69636961646F2E2E2E0D0A00003F
S9030000FC
